{
  "transactions": [
    {
      "hash": "0x5af43371ceaaacb49d8c40524ae3c298d8126c60c9c9a74a6b2b2eda776ccebd",
      "transactionType": "CALL",
      "contractName": null,
      "contractAddress": "0x34da08fbaed3814e8c71691641ef0ad4fe0b7fde",
      "function": "grantSigningRole(address)",
      "arguments": [
        "0x93923B42Ff4bDF533634Ea71bF626c90286D27A0"
      ],
      "transaction": {
        "from": "0xdbc29e79b2b3b62c015ab598d0bb86681313d90f",
        "to": "0x34da08fbaed3814e8c71691641ef0ad4fe0b7fde",
        "gas": "0x2239c",
        "value": "0x0",
        "input": "0xcb183ab300000000000000000000000093923b42ff4bdf533634ea71bf626c90286d27a0",
        "nonce": "0xaa",
        "chainId": "0xaa36a7"
      },
      "additionalContracts": [],
      "isFixedGasLimit": false
    },
    {
      "hash": "0x8cf0445cd885eb37ac1c7996639d033a003bb95d9f7014903478f00ef8990871",
      "transactionType": "CALL",
      "contractName": null,
      "contractAddress": "0x34da08fbaed3814e8c71691641ef0ad4fe0b7fde",
      "function": "grantSigningRole(address)",
      "arguments": [
        "0x5d4aD28bD191107E582E56E47d7407bD5F111D8b"
      ],
      "transaction": {
        "from": "0xdbc29e79b2b3b62c015ab598d0bb86681313d90f",
        "to": "0x34da08fbaed3814e8c71691641ef0ad4fe0b7fde",
        "gas": "0x2239c",
        "value": "0x0",
        "input": "0xcb183ab30000000000000000000000005d4ad28bd191107e582e56e47d7407bd5f111d8b",
        "nonce": "0xab",
        "chainId": "0xaa36a7"
      },
      "additionalContracts": [],
      "isFixedGasLimit": false
    },
    {
      "hash": "0x8f9bd3d606b213343d79e48ce6594ddc9f19d66caf1b719b1c08ed3281ac9da8",
      "transactionType": "CALL",
      "contractName": null,
      "contractAddress": "0x34da08fbaed3814e8c71691641ef0ad4fe0b7fde",
      "function": "grantSigningRole(address)",
      "arguments": [
        "0x86F44aA771f0ad42a037efF70C859bb1B86c188A"
      ],
      "transaction": {
        "from": "0xdbc29e79b2b3b62c015ab598d0bb86681313d90f",
        "to": "0x34da08fbaed3814e8c71691641ef0ad4fe0b7fde",
        "gas": "0x2239c",
        "value": "0x0",
        "input": "0xcb183ab300000000000000000000000086f44aa771f0ad42a037eff70c859bb1b86c188a",
        "nonce": "0xac",
        "chainId": "0xaa36a7"
      },
      "additionalContracts": [],
      "isFixedGasLimit": false
    },
    {
      "hash": "0x4eb51e6bc205b2da5bebac10e8aea6433f159fb45ef1d4b78d86110e7ecbaa59",
      "transactionType": "CALL",
      "contractName": null,
      "contractAddress": "0x34da08fbaed3814e8c71691641ef0ad4fe0b7fde",
      "function": "grantSigningRole(address)",
      "arguments": [
        "0x5375bB27ABEC8d0f69d035c58306936aA9991182"
      ],
      "transaction": {
        "from": "0xdbc29e79b2b3b62c015ab598d0bb86681313d90f",
        "to": "0x34da08fbaed3814e8c71691641ef0ad4fe0b7fde",
        "gas": "0x2239c",
        "value": "0x0",
        "input": "0xcb183ab30000000000000000000000005375bb27abec8d0f69d035c58306936aa9991182",
        "nonce": "0xad",
        "chainId": "0xaa36a7"
      },
      "additionalContracts": [],
      "isFixedGasLimit": false
    }
  ],
  "receipts": [
    {
      "status": "0x1",
      "cumulativeGasUsed": "0x9d47b3",
      "logs": [
        {
          "address": "0x34da08fbaed3814e8c71691641ef0ad4fe0b7fde",
          "topics": [
            "0x2f8788117e7eff1d82e926ec794901d17c78024a50270940304540a733656f0d",
            "0x8d12c52fe7c286acb23e8b6fad43ba0a7b1bdee59ad6818c044e478cc487c15b",
            "0x00000000000000000000000093923b42ff4bdf533634ea71bf626c90286d27a0",
            "0x000000000000000000000000dbc29e79b2b3b62c015ab598d0bb86681313d90f"
          ],
          "data": "0x",
          "blockHash": "0xdb6867db98fb9a622160a73029ae3feb6cbcca9abdde379434fb8d0adcafd913",
          "blockNumber": "0x8b17e7",
          "blockTimestamp": "0x68b67dc0",
          "transactionHash": "0x5af43371ceaaacb49d8c40524ae3c298d8126c60c9c9a74a6b2b2eda776ccebd",
          "transactionIndex": "0x50",
          "logIndex": "0x6a",
          "removed": false
        }
      ],
      "logsBloom": "0x00000004800008000000000000000000000000000010000000000000080000000000000000000000000000000000000000000000000000000000000000000000100000000000000010000000040000040000000008000000000000000000008000000000000000000000000000000000000000000000000000000000000000000000000000000000000000000000000000000000000000000000000000000000000000000000000000000000000000000000008000000000001000000000000000000000000000000000000000000000000000000000000100000000000000000000000000000000000000000000000000000000000000000000000000020000",
      "type": "0x2",
      "transactionHash": "0x5af43371ceaaacb49d8c40524ae3c298d8126c60c9c9a74a6b2b2eda776ccebd",
      "transactionIndex": "0x50",
      "blockHash": "0xdb6867db98fb9a622160a73029ae3feb6cbcca9abdde379434fb8d0adcafd913",
      "blockNumber": "0x8b17e7",
      "gasUsed": "0x18c76",
      "effectiveGasPrice": "0xa3372b3",
      "from": "0xdbc29e79b2b3b62c015ab598d0bb86681313d90f",
      "to": "0x34da08fbaed3814e8c71691641ef0ad4fe0b7fde",
      "contractAddress": null
    },
    {
      "status": "0x1",
      "cumulativeGasUsed": "0x1d3f1db",
      "logs": [
        {
          "address": "0x34da08fbaed3814e8c71691641ef0ad4fe0b7fde",
          "topics": [
            "0x2f8788117e7eff1d82e926ec794901d17c78024a50270940304540a733656f0d",
            "0x8d12c52fe7c286acb23e8b6fad43ba0a7b1bdee59ad6818c044e478cc487c15b",
            "0x0000000000000000000000005d4ad28bd191107e582e56e47d7407bd5f111d8b",
            "0x000000000000000000000000dbc29e79b2b3b62c015ab598d0bb86681313d90f"
          ],
          "data": "0x",
          "blockHash": "0xdb6867db98fb9a622160a73029ae3feb6cbcca9abdde379434fb8d0adcafd913",
          "blockNumber": "0x8b17e7",
          "blockTimestamp": "0x68b67dc0",
          "transactionHash": "0x8cf0445cd885eb37ac1c7996639d033a003bb95d9f7014903478f00ef8990871",
          "transactionIndex": "0x85",
          "logIndex": "0x12d",
          "removed": false
        }
      ],
      "logsBloom": "0x00000004800008000000000000000800000000000010000000000000080000000000000000000000000000000000000000000000000000000000000000000000100000000000000000000000040000040000000000000000000000000000008000000000000000000400000000000000000000000000000000000000000000000000000000000000000000000000000000000000000000000000000000000000000000000000000000000000000000000000000000000000001000000000000000000000000000000000000000000000000000000000000100000000000000000000000000000000000004000000000000000000000000000000000000020000",
      "type": "0x2",
      "transactionHash": "0x8cf0445cd885eb37ac1c7996639d033a003bb95d9f7014903478f00ef8990871",
      "transactionIndex": "0x85",
      "blockHash": "0xdb6867db98fb9a622160a73029ae3feb6cbcca9abdde379434fb8d0adcafd913",
      "blockNumber": "0x8b17e7",
      "gasUsed": "0x18c76",
      "effectiveGasPrice": "0xa3372b3",
      "from": "0xdbc29e79b2b3b62c015ab598d0bb86681313d90f",
      "to": "0x34da08fbaed3814e8c71691641ef0ad4fe0b7fde",
      "contractAddress": null
    },
    {
      "status": "0x1",
      "cumulativeGasUsed": "0x1d64279",
      "logs": [
        {
          "address": "0x34da08fbaed3814e8c71691641ef0ad4fe0b7fde",
          "topics": [
            "0x2f8788117e7eff1d82e926ec794901d17c78024a50270940304540a733656f0d",
            "0x8d12c52fe7c286acb23e8b6fad43ba0a7b1bdee59ad6818c044e478cc487c15b",
            "0x00000000000000000000000086f44aa771f0ad42a037eff70c859bb1b86c188a",
            "0x000000000000000000000000dbc29e79b2b3b62c015ab598d0bb86681313d90f"
          ],
          "data": "0x",
          "blockHash": "0xdb6867db98fb9a622160a73029ae3feb6cbcca9abdde379434fb8d0adcafd913",
          "blockNumber": "0x8b17e7",
          "blockTimestamp": "0x68b67dc0",
          "transactionHash": "0x8f9bd3d606b213343d79e48ce6594ddc9f19d66caf1b719b1c08ed3281ac9da8",
          "transactionIndex": "0x88",
          "logIndex": "0x12f",
          "removed": false
        }
      ],
      "logsBloom": "0x00000004800008000000000000000000000000000010000000000000080000000000000000000000000000000000000200000000000000000000000000000000100000000000000000000000040000040000000400000000000000000000008000000000000000800000000000000000000000000000000000000000000000000000000000000000000000000000000000000000000000000000000000000000000000000000000000000000000000000000000000000000001000000000000000000000000000000000000000000000000000000000000100000000000000000000000000000000000000000000000000000000000000000000000000020000",
      "type": "0x2",
      "transactionHash": "0x8f9bd3d606b213343d79e48ce6594ddc9f19d66caf1b719b1c08ed3281ac9da8",
      "transactionIndex": "0x88",
      "blockHash": "0xdb6867db98fb9a622160a73029ae3feb6cbcca9abdde379434fb8d0adcafd913",
      "blockNumber": "0x8b17e7",
      "gasUsed": "0x18c76",
      "effectiveGasPrice": "0xa3372b3",
      "from": "0xdbc29e79b2b3b62c015ab598d0bb86681313d90f",
      "to": "0x34da08fbaed3814e8c71691641ef0ad4fe0b7fde",
      "contractAddress": null
    },
    {
      "status": "0x1",
      "cumulativeGasUsed": "0x1d7ceef",
      "logs": [
        {
          "address": "0x34da08fbaed3814e8c71691641ef0ad4fe0b7fde",
          "topics": [
            "0x2f8788117e7eff1d82e926ec794901d17c78024a50270940304540a733656f0d",
            "0x8d12c52fe7c286acb23e8b6fad43ba0a7b1bdee59ad6818c044e478cc487c15b",
            "0x0000000000000000000000005375bb27abec8d0f69d035c58306936aa9991182",
            "0x000000000000000000000000dbc29e79b2b3b62c015ab598d0bb86681313d90f"
          ],
          "data": "0x",
          "blockHash": "0xdb6867db98fb9a622160a73029ae3feb6cbcca9abdde379434fb8d0adcafd913",
          "blockNumber": "0x8b17e7",
          "blockTimestamp": "0x68b67dc0",
          "transactionHash": "0x4eb51e6bc205b2da5bebac10e8aea6433f159fb45ef1d4b78d86110e7ecbaa59",
          "transactionIndex": "0x89",
          "logIndex": "0x130",
          "removed": false
        }
      ],
      "logsBloom": "0x00000004800008000000000000000000000000000010000000000000080000000000000000000020000000000000000000000800000000000000000000000000100000000000000000000000040000040000000000000000000000000000008000000000000000000000000000000000000000000000000000000000000000000000000000000000000000000000000000000000000000000000000000000000000000000000000000000000000000000000000000000000001000000000000000000000000000020000000000000000000000000000000100000000000000000000000000000000000000000000000000000000000000000000000000020000",
      "type": "0x2",
      "transactionHash": "0x4eb51e6bc205b2da5bebac10e8aea6433f159fb45ef1d4b78d86110e7ecbaa59",
      "transactionIndex": "0x89",
      "blockHash": "0xdb6867db98fb9a622160a73029ae3feb6cbcca9abdde379434fb8d0adcafd913",
      "blockNumber": "0x8b17e7",
      "gasUsed": "0x18c76",
      "effectiveGasPrice": "0xa3372b3",
      "from": "0xdbc29e79b2b3b62c015ab598d0bb86681313d90f",
      "to": "0x34da08fbaed3814e8c71691641ef0ad4fe0b7fde",
      "contractAddress": null
    }
  ],
  "libraries": [],
  "pending": [],
  "returns": {},
  "timestamp": 1756790209155,
  "chain": 11155111,
  "commit": "ec0426c"
}