{
  "transactions": [
    {
      "hash": "0xc1580964a0e40b19a819c4364f6152430435b8e55038a7599ad24ee4bed1f298",
      "transactionType": "CALL",
      "contractName": null,
      "contractAddress": "0x34da08fbaed3814e8c71691641ef0ad4fe0b7fde",
      "function": "confirmTransaction(uint256)",
      "arguments": [
        "0"
      ],
      "transaction": {
        "from": "0x5d4ad28bd191107e582e56e47d7407bd5f111d8b",
        "to": "0x34da08fbaed3814e8c71691641ef0ad4fe0b7fde",
        "gas": "0x1457c",
        "value": "0x0",
        "input": "0xc01a8c840000000000000000000000000000000000000000000000000000000000000000",
        "nonce": "0x0",
        "chainId": "0xaa36a7"
      },
      "additionalContracts": [],
      "isFixedGasLimit": false
    }
  ],
  "receipts": [
    {
      "status": "0x1",
      "cumulativeGasUsed": "0x9c18e9",
      "logs": [
        {
          "address": "0x34da08fbaed3814e8c71691641ef0ad4fe0b7fde",
          "topics": [
            "0x15c2f311c9e0f53b50388279894aeff029a3457884a6601e924fca879e12adcc",
            "0x0000000000000000000000000000000000000000000000000000000000000000",
            "0x0000000000000000000000005d4ad28bd191107e582e56e47d7407bd5f111d8b"
          ],
          "data": "0x",
          "blockHash": "0xf92d461d4464eb3dcbf197a2ff7630265d80516a541ce2039784c4e834104edd",
          "blockNumber": "0x8b1890",
          "blockTimestamp": "0x68b685b8",
          "transactionHash": "0xc1580964a0e40b19a819c4364f6152430435b8e55038a7599ad24ee4bed1f298",
          "transactionIndex": "0x4e",
          "logIndex": "0x78",
          "removed": false
        }
      ],
      "logsBloom": "0x00000000000000000000000000000800000000000000000000000000082000000000000000000000000000004000000000000000000000000000000000000000000000000000000000000000040000000000000000000000000000000000000000000000020000000400000000000800000000000000000000000000001000000000000000000000000000000000000000000000000000000000000000000000000000000000000000000000000000000000000000000000000000000000000000000000000000000000000000000000000000000000000000000000000020000000000000000000000004000000000000000000000000000000000000020000",
      "type": "0x2",
      "transactionHash": "0xc1580964a0e40b19a819c4364f6152430435b8e55038a7599ad24ee4bed1f298",
      "transactionIndex": "0x4e",
      "blockHash": "0xf92d461d4464eb3dcbf197a2ff7630265d80516a541ce2039784c4e834104edd",
      "blockNumber": "0x8b1890",
      "gasUsed": "0xeba6",
      "effectiveGasPrice": "0xfa9b92a",
      "from": "0x5d4ad28bd191107e582e56e47d7407bd5f111d8b",
      "to": "0x34da08fbaed3814e8c71691641ef0ad4fe0b7fde",
      "contractAddress": null
    }
  ],
  "libraries": [],
  "pending": [],
  "returns": {},
  "timestamp": 1756792249024,
  "chain": 11155111,
  "commit": "ec0426c"
}