{
  "transactions": [
    {
      "hash": "0xf06fa19b1d8ed3e3ca82630483f69884b0207d8955e8cdb57724c292b44e5321",
      "transactionType": "CALL",
      "contractName": null,
      "contractAddress": "0x34da08fbaed3814e8c71691641ef0ad4fe0b7fde",
      "function": "executeTransaction(uint256)",
      "arguments": [
        "0"
      ],
      "transaction": {
        "from": "0xdbc29e79b2b3b62c015ab598d0bb86681313d90f",
        "to": "0x34da08fbaed3814e8c71691641ef0ad4fe0b7fde",
        "gas": "0x19160",
        "value": "0x0",
        "input": "0xee22610b0000000000000000000000000000000000000000000000000000000000000000",
        "nonce": "0xb1",
        "chainId": "0xaa36a7"
      },
      "additionalContracts": [],
      "isFixedGasLimit": false
    }
  ],
  "receipts": [
    {
      "status": "0x1",
      "cumulativeGasUsed": "0x1dc32c3",
      "logs": [
        {
          "address": "0x34da08fbaed3814e8c71691641ef0ad4fe0b7fde",
          "topics": [
            "0xda19024f6708ce28e75d9c0ec389fb05a8e5cc9dfe520f61239c10d51a11e59c",
            "0x0000000000000000000000000000000000000000000000000000000000000000",
            "0x00000000000000000000000093923b42ff4bdf533634ea71bf626c90286d27a0"
          ],
          "data": "0x0000000000000000000000000000000000000000000000000011c37937e08000",
          "blockHash": "0x15e3a7986c52d2cd7bd2a9d084dc6c5ff70e7bb47f32dbc9e6a0af8eb43ce1ab",
          "blockNumber": "0x8b189a",
          "blockTimestamp": "0x68b6863c",
          "transactionHash": "0xf06fa19b1d8ed3e3ca82630483f69884b0207d8955e8cdb57724c292b44e5321",
          "transactionIndex": "0xcb",
          "logIndex": "0x19c",
          "removed": false
        }
      ],
      "logsBloom": "0x00000000000000000000000000000000000000000000000000000000080000000000000080000000000000000000000000000000000000000000000000000000000000000000000010000000040000000000000008000000000000000000000000000000020000000000000000000800000000000000000000000000000000000000000000000000000000000000000000000000000000000000000000000000000000000000000000000000000000000000008000000000020000000000000000000000000000000000000004000000000000000000000000000000000020000000000000000000000000000000000000000000000000000000000000020000",
      "type": "0x2",
      "transactionHash": "0xf06fa19b1d8ed3e3ca82630483f69884b0207d8955e8cdb57724c292b44e5321",
      "transactionIndex": "0xcb",
      "blockHash": "0x15e3a7986c52d2cd7bd2a9d084dc6c5ff70e7bb47f32dbc9e6a0af8eb43ce1ab",
      "blockNumber": "0x8b189a",
      "gasUsed": "0x12297",
      "effectiveGasPrice": "0xc0044b5",
      "from": "0xdbc29e79b2b3b62c015ab598d0bb86681313d90f",
      "to": "0x34da08fbaed3814e8c71691641ef0ad4fe0b7fde",
      "contractAddress": null
    }
  ],
  "libraries": [],
  "pending": [],
  "returns": {},
  "timestamp": 1756792381259,
  "chain": 11155111,
  "commit": "ec0426c"
}