{
  "transactions": [
    {
      "hash": "0x0d7296e393a36aad7ae1ba42bf338bf8efa24524bb2a008536aa4ca7de2c059a",
      "transactionType": "CALL",
      "contractName": null,
      "contractAddress": "0x34da08fbaed3814e8c71691641ef0ad4fe0b7fde",
      "function": "confirmTransaction(uint256)",
      "arguments": [
        "0"
      ],
      "transaction": {
        "from": "0xdbc29e79b2b3b62c015ab598d0bb86681313d90f",
        "to": "0x34da08fbaed3814e8c71691641ef0ad4fe0b7fde",
        "gas": "0x1ba53",
        "value": "0x0",
        "input": "0xc01a8c840000000000000000000000000000000000000000000000000000000000000000",
        "nonce": "0xb0",
        "chainId": "0xaa36a7"
      },
      "additionalContracts": [],
      "isFixedGasLimit": false
    }
  ],
  "receipts": [
    {
      "status": "0x1",
      "cumulativeGasUsed": "0x5017b6",
      "logs": [
        {
          "address": "0x34da08fbaed3814e8c71691641ef0ad4fe0b7fde",
          "topics": [
            "0x15c2f311c9e0f53b50388279894aeff029a3457884a6601e924fca879e12adcc",
            "0x0000000000000000000000000000000000000000000000000000000000000000",
            "0x000000000000000000000000dbc29e79b2b3b62c015ab598d0bb86681313d90f"
          ],
          "data": "0x",
          "blockHash": "0x6e2ef22292f3cf40017a31c75a2caf0f9167001c765187d276ceffdea524b0ca",
          "blockNumber": "0x8b1888",
          "blockTimestamp": "0x68b68558",
          "transactionHash": "0x0d7296e393a36aad7ae1ba42bf338bf8efa24524bb2a008536aa4ca7de2c059a",
          "transactionIndex": "0x2f",
          "logIndex": "0x45",
          "removed": false
        }
      ],
      "logsBloom": "0x00000000800000000000000000000000000000000010000000000000082000000000000000000000000000004000000000000000000000000000000000000000100000000000000000000000040000000000000000000000000000000000000000000000020000000000000000000800000000000000000000000000001000000000000000000000000000000000000000000000000000000000000000000000000000000000000000000000000000000000000000000000000000000000000000000000000000000000000000000000000000000000000000000000000020000000000000000000000000000000000000000000000000000000000000020000",
      "type": "0x2",
      "transactionHash": "0x0d7296e393a36aad7ae1ba42bf338bf8efa24524bb2a008536aa4ca7de2c059a",
      "transactionIndex": "0x2f",
      "blockHash": "0x6e2ef22292f3cf40017a31c75a2caf0f9167001c765187d276ceffdea524b0ca",
      "blockNumber": "0x8b1888",
      "gasUsed": "0x12e72",
      "effectiveGasPrice": "0x186b42a4",
      "from": "0xdbc29e79b2b3b62c015ab598d0bb86681313d90f",
      "to": "0x34da08fbaed3814e8c71691641ef0ad4fe0b7fde",
      "contractAddress": null
    }
  ],
  "libraries": [],
  "pending": [],
  "returns": {},
  "timestamp": 1756792150679,
  "chain": 11155111,
  "commit": "ec0426c"
}