{
  "transactions": [
    {
      "hash": "0xd9c87d54558ee6336bcde6e390fa4c6ece903c96a33f045d8002740e64473850",
      "transactionType": "CALL",
      "contractName": null,
      "contractAddress": "0x34da08fbaed3814e8c71691641ef0ad4fe0b7fde",
      "function": "proposeTransaction(address,uint256,bytes)",
      "arguments": [
        "0x93923B42Ff4bDF533634Ea71bF626c90286D27A0",
        "5000000000000000",
        "0x"
      ],
      "transaction": {
        "from": "0xdbc29e79b2b3b62c015ab598d0bb86681313d90f",
        "to": "0x34da08fbaed3814e8c71691641ef0ad4fe0b7fde",
        "gas": "0x2d140",
        "value": "0x0",
        "input": "0x5e90852d00000000000000000000000093923b42ff4bdf533634ea71bf626c90286d27a00000000000000000000000000000000000000000000000000011c37937e0800000000000000000000000000000000000000000000000000000000000000000600000000000000000000000000000000000000000000000000000000000000000",
        "nonce": "0xaf",
        "chainId": "0xaa36a7"
      },
      "additionalContracts": [],
      "isFixedGasLimit": false
    }
  ],
  "receipts": [
    {
      "status": "0x1",
      "cumulativeGasUsed": "0x93364e",
      "logs": [
        {
          "address": "0x34da08fbaed3814e8c71691641ef0ad4fe0b7fde",
          "topics": [
            "0x34c1492f2b30aac2446b0b2de2e32501ff4742f7196db5ed9e0ddd6b7d7b25cf",
            "0x0000000000000000000000000000000000000000000000000000000000000000",
            "0x00000000000000000000000093923b42ff4bdf533634ea71bf626c90286d27a0"
          ],
          "data": "0x0000000000000000000000000000000000000000000000000011c37937e08000",
          "blockHash": "0x44a0e5739ad0ca18c7fd1c1413fb282715978c521e2cf84071626f2317e24a8f",
          "blockNumber": "0x8b186a",
          "blockTimestamp": "0x68b683e4",
          "transactionHash": "0xd9c87d54558ee6336bcde6e390fa4c6ece903c96a33f045d8002740e64473850",
          "transactionIndex": "0x56",
          "logIndex": "0x87",
          "removed": false
        }
      ],
      "logsBloom": "0x00000000000000000000000000000000000000000000000000000000080000000000000000000000000000000000000000000000000000000000000000000000002000000000000010000000040000000000000008000000000000000000000000000000020000000000000000000800000000000001000000000000000000000000000000000000000000000000000000000000000000000000000000000000000000000000000000000000000000000000008000000000000000000000000000000000000000000000000000000000000000000000000000000000000020000080000000000000000000000000000000000000000000000000000000020000",
      "type": "0x2",
      "transactionHash": "0xd9c87d54558ee6336bcde6e390fa4c6ece903c96a33f045d8002740e64473850",
      "transactionIndex": "0x56",
      "blockHash": "0x44a0e5739ad0ca18c7fd1c1413fb282715978c521e2cf84071626f2317e24a8f",
      "blockNumber": "0x8b186a",
      "gasUsed": "0x1ed2a",
      "effectiveGasPrice": "0x743fdce",
      "from": "0xdbc29e79b2b3b62c015ab598d0bb86681313d90f",
      "to": "0x34da08fbaed3814e8c71691641ef0ad4fe0b7fde",
      "contractAddress": null
    }
  ],
  "libraries": [],
  "pending": [],
  "returns": {},
  "timestamp": 1756791780180,
  "chain": 11155111,
  "commit": "ec0426c"
}